{
  "contractName": "Lottery",
  "abi": [
    {
      "inputs": [],
      "stateMutability": "nonpayable",
      "type": "constructor"
    },
    {
      "inputs": [],
      "name": "lotteryId",
      "outputs": [
        {
          "internalType": "uint256",
          "name": "",
          "type": "uint256"
        }
      ],
      "stateMutability": "view",
      "type": "function",
      "constant": true
    },
    {
      "inputs": [],
      "name": "owner",
      "outputs": [
        {
          "internalType": "address",
          "name": "",
          "type": "address"
        }
      ],
      "stateMutability": "view",
      "type": "function",
      "constant": true
    },
    {
      "inputs": [
        {
          "internalType": "uint256",
          "name": "",
          "type": "uint256"
        }
      ],
      "name": "players",
      "outputs": [
        {
          "internalType": "address payable",
          "name": "",
          "type": "address"
        }
      ],
      "stateMutability": "view",
      "type": "function",
      "constant": true
    },
    {
      "inputs": [],
      "name": "getBalance",
      "outputs": [
        {
          "internalType": "uint256",
          "name": "",
          "type": "uint256"
        }
      ],
      "stateMutability": "view",
      "type": "function",
      "constant": true
    },
    {
      "inputs": [],
      "name": "getPlayers",
      "outputs": [
        {
          "internalType": "address payable[]",
          "name": "",
          "type": "address[]"
        }
      ],
      "stateMutability": "view",
      "type": "function",
      "constant": true
    },
    {
      "inputs": [],
      "name": "getCurrentLotteryId",
      "outputs": [
        {
          "internalType": "uint256",
          "name": "",
          "type": "uint256"
        }
      ],
      "stateMutability": "view",
      "type": "function",
      "constant": true
    },
    {
      "inputs": [],
      "name": "enter",
      "outputs": [],
      "stateMutability": "payable",
      "type": "function",
      "payable": true
    },
    {
      "inputs": [],
      "name": "getRandomNumber",
      "outputs": [
        {
          "internalType": "uint256",
          "name": "",
          "type": "uint256"
        }
      ],
      "stateMutability": "view",
      "type": "function",
      "constant": true
    },
    {
      "inputs": [],
      "name": "pickWinner",
      "outputs": [],
      "stateMutability": "nonpayable",
      "type": "function"
    }
  ],
  "bytecode": "0x608060405234801561001057600080fd5b50600080546001600160a01b03191633179055600160025561052f806100376000396000f3fe6080604052600436106100865760003560e01c8063dbdff2c111610059578063dbdff2c11461011e578063e580f47b14610133578063e87e121d14610149578063e97dcb621461015e578063f71d96cb1461016657600080fd5b806312065fe01461008b5780635d495aea146100ad5780638b5b9ccc146100c45780638da5cb5b146100e6575b600080fd5b34801561009757600080fd5b50475b6040519081526020015b60405180910390f35b3480156100b957600080fd5b506100c2610186565b005b3480156100d057600080fd5b506100d961028f565b6040516100a49190610434565b3480156100f257600080fd5b50600054610106906001600160a01b031681565b6040516001600160a01b0390911681526020016100a4565b34801561012a57600080fd5b5061009a6102f1565b34801561013f57600080fd5b5061009a60025481565b34801561015557600080fd5b5060025461009a565b6100c2610339565b34801561017257600080fd5b50610106610181366004610481565b610390565b6000546001600160a01b031633146101e45760405162461bcd60e51b815260206004820152601d60248201527f4f6e6c79206f776e65722063616e206d616b6520746869732063616c6c000000604482015260640160405180910390fd5b6001546000906101f26102f1565b6101fc919061049a565b9050600060018281548110610213576102136104bc565b60009182526020822001546040516001600160a01b03909116925082914780156108fc02929091818181858888f19350505050158015610257573d6000803e3d6000fd5b5060028054906000610268836104d2565b9091555050604080516000815260208101918290525161028a916001916103ba565b505050565b606060018054806020026020016040519081016040528092919081815260200182805480156102e757602002820191906000526020600020905b81546001600160a01b031681526001909101906020018083116102c9575b5050505050905090565b6000805460405160609190911b6bffffffffffffffffffffffff191660208201524260348201526054016040516020818303038152906040528051906020012060001c905090565b66038d7ea4c6800034101561034d57600080fd5b6001805480820182556000919091527fb10e2d527612073b26eecdfd717e6a320cf44b4afac2b0732d9fcbe2b7fa0cf60180546001600160a01b03191633179055565b600181815481106103a057600080fd5b6000918252602090912001546001600160a01b0316905081565b82805482825590600052602060002090810192821561040f579160200282015b8281111561040f57825182546001600160a01b0319166001600160a01b039091161782556020909201916001909101906103da565b5061041b92915061041f565b5090565b5b8082111561041b5760008155600101610420565b6020808252825182820181905260009190848201906040850190845b818110156104755783516001600160a01b031683529284019291840191600101610450565b50909695505050505050565b60006020828403121561049357600080fd5b5035919050565b6000826104b757634e487b7160e01b600052601260045260246000fd5b500690565b634e487b7160e01b600052603260045260246000fd5b6000600182016104f257634e487b7160e01b600052601160045260246000fd5b506001019056fea2646970667358221220d285db5c9246bf7292c19349906be7c8375a2235c8b05a13854fb2f106a2312064736f6c63430008130033",
  "immutableReferences": {},
  "source": "// SPDX-License-Identifier: MIT\npragma solidity ^0.8.19;\n\ncontract Lottery {\n    address public owner;\n    address payable[] public players;\n    uint public lotteryId;\n\n    constructor() {\n        // set the owner from the initial deployed msg\n        owner = msg.sender;\n        lotteryId = 1;\n    }\n\n    function getBalance() public view returns (uint) {\n        return address(this).balance;\n    }\n\n    function getPlayers() public view returns (address payable[] memory) {\n        return players;\n    }\n\n    function getCurrentLotteryId() public view returns (uint) {\n        return lotteryId;\n    }\n\n    function enter() public payable {\n        require(msg.value >= 0.001 ether);\n        players.push(payable(msg.sender));\n        // console.log('Entered to lotteryId=${lotteryId}:', msg.sender);\n    }\n\n    function getRandomNumber() public view returns (uint) {\n        return uint(keccak256(abi.encodePacked(owner, block.timestamp)));\n    }\n\n    function pickWinner() public onlyOwner {\n        uint winningIdx = getRandomNumber() % players.length;\n        address payable winner = players[winningIdx];\n        // Console.log('Picked winner for lotteryId=${lotteryId}:', winner);\n        // Console.log('Transferring price pot balance:', address(this).balance);\n        // transfer entire contract bal to winner\n        winner.transfer(address(this).balance);\n        // increment lotteryId\n        lotteryId++;\n        // reset players in current contract\n        players = new address payable[](0);\n    }\n\n    modifier onlyOwner() {\n        require(msg.sender == owner, \"Only owner can make this call\");\n        _;\n    }\n\n}",
  "sourcePath": "/Users/ailin/Code/samples/solidity/lottery-smart-contract/contracts/Lottery.sol",
  "compiler": {
    "name": "solc",
    "version": "0.8.19+commit.7dd6d404.Emscripten.clang"
  },
  "schemaVersion": "3.4.13",
  "updatedAt": "2023-04-19T11:20:14.849Z",
  "networkType": "ethereum",
  "devdoc": {
    "kind": "dev",
    "methods": {},
    "version": 1
  },
  "userdoc": {
    "kind": "user",
    "methods": {},
    "version": 1
  }
}